:1000000000308A0004280000840183131F30830518
:1000100083161F149F141F159F1107309C00FF307B
:100020008312A00083161F109F101F159F111F130E
:1000300083121F179F1783169F1383121F14831693
:10004000091283129412A0122008831687008312CB
:1000500020162008831687008312A011200883161B
:100060008700013083129400003083169400010849
:10007000C73908388100831290010030F800043835
:100080009200C73083169200831220112008831635
:100090008700831207110C30970064309500170811
:1000A000CF399700073083169C0005080330F7000E
:1000B000F70B58281C0883120D1383169D0163004B
:02400E0039393E
:00000001FF
;PIC16F877A
